{
  "contractName": "Owned",
  "abi": [
    {
      "anonymous": false,
      "inputs": [
        {
          "indexed": false,
          "name": "previousOwner",
          "type": "address"
        },
        {
          "indexed": false,
          "name": "newOwner",
          "type": "address"
        }
      ],
      "name": "TransferredOwnership",
      "type": "event"
    },
    {
      "constant": false,
      "inputs": [
        {
          "name": "_newOwner",
          "type": "address"
        }
      ],
      "name": "transferOwnership",
      "outputs": [],
      "payable": false,
      "stateMutability": "nonpayable",
      "type": "function"
    }
  ],
  "bytecode": "0x608060405234801561001057600080fd5b506102a1806100206000396000f300608060405260043610610041576000357c0100000000000000000000000000000000000000000000000000000000900463ffffffff168063f2fde38b14610046575b600080fd5b34801561005257600080fd5b50610087600480360381019080803573ffffffffffffffffffffffffffffffffffffffff169060200190929190505050610089565b005b60006100936101f1565b73ffffffffffffffffffffffffffffffffffffffff163373ffffffffffffffffffffffffffffffffffffffff161415156100cc57600080fd5b6100d46101f1565b9050600073ffffffffffffffffffffffffffffffffffffffff168273ffffffffffffffffffffffffffffffffffffffff161415151561011257600080fd5b8073ffffffffffffffffffffffffffffffffffffffff168273ffffffffffffffffffffffffffffffffffffffff161415151561014d57600080fd5b61015682610234565b7f850b3df64837d7d518b45f5aa64d104652c3b80eb5b34a8e3d9eb666cb7cdea58183604051808373ffffffffffffffffffffffffffffffffffffffff1673ffffffffffffffffffffffffffffffffffffffff1681526020018273ffffffffffffffffffffffffffffffffffffffff1673ffffffffffffffffffffffffffffffffffffffff1681526020019250505060405180910390a15050565b60008060405180807f696f2e6261697368692e6f776e65720000000000000000000000000000000000815250600f01905060405180910390209050805491505090565b600060405180807f696f2e6261697368692e6f776e65720000000000000000000000000000000000815250600f0190506040518091039020905081815550505600a165627a7a72305820af0782eeee6c2dd6339ab6b40d57990c1ae51e88165b8e81df84a796f5581a3d0029",
  "source": "pragma solidity ^0.4.23;\n\ncontract Owned {\n  bytes32 private constant ownerPosition = keccak256(\"io.baishi.owner\");\n\n  event TransferredOwnership(address previousOwner, address newOwner);\n\n  modifier onlyOwner() {\n    require(msg.sender == getOwner());\n    _;\n  }\n\n  function transferOwnership(address _newOwner) onlyOwner external {\n    address owner = getOwner();\n    require(_newOwner != address(0));\n    require(_newOwner != owner);\n    setOwner(_newOwner);\n    emit TransferredOwnership(owner, _newOwner);\n  }\n\n  function getOwner() internal view returns (address owner) {\n    bytes32 position = ownerPosition;\n    assembly {\n      owner := sload(position)\n    }\n  }\n\n  function setOwner(address _owner) internal {\n    bytes32 position = ownerPosition;\n    assembly {\n      sstore(position, _owner)\n    }\n  }\n}\n",
  "sourcePath": "/Users/vietth/Documents/PM/my projects/baishi/source/nftBaishi/contracts/Owned.sol",
  "compiler": {
    "name": "solc",
    "version": "0.4.24+commit.e67f0147.Emscripten.clang"
  },
  "schemaVersion": "2.0.1",
  "updatedAt": "2018-09-24T06:53:45.357Z"
}